:020000040000fa
:080000000002040000000000f2
:020000040000fa
:10000800f0020000940200009a020000a002000022
:10001800a6020000ac020000f0020000f00200009e
:10002800f0020000f0020000f0020000f002000000
:10003800f0020000f0020000f0020000f0020000f0
:10004800f0020000f0020000f0020000f0020000e0
:10005800f0020000f0020000f0020000f0020000d0
:10006800f0020000f0020000f0020000f0020000c0
:10007800f0020000f0020000f0020000f0020000b0
:10008800f0020000f0020000f0020000f0020000a0
:10009800f0020000f0020000f0020000f002000090
:1000a800f0020000f0020000f0020000f002000080
:1000b800f0020000f0020000f0020000f002000070
:1000c800f0020000f0020000f0020000f002000060
:1000d800f0020000f0020000f0020000d002000070
:1000e800f0020000f0020000f0020000f002000040
:1000f800f0020000f0020000f0020000f002000030
:10010800f0020000f0020000f0020000f00200001f
:10011800f0020000f0020000f0020000f00200000f
:10012800f0020000f0020000f0020000f0020000ff
:10013800f0020000f0020000f0020000f0020000ef
:10014800f0020000f0020000f0020000f0020000df
:10015800f0020000f0020000f0020000f0020000cf
:10016800f0020000f0020000f0020000f0020000bf
:10017800f0020000f0020000f0020000f0020000af
:10018800f0020000f0020000f0020000f00200009f
:10019800f0020000f0020000f0020000f00200008f
:1001a800f0020000f0020000f0020000f00200007f
:1001b800f0020000f0020000f0020000f00200006f
:1001c800f0020000f0020000f0020000f00200005f
:1001d800f0020000f0020000f0020000f00200004f
:1001e800f0020000f0020000f0020000f00200003f
:0801f800f0020000f00200001b
:020000040000fa
:10020800f0020000b2020000b8020000be020000c6
:10021800c4020000ca020000f0020000f002000060
:10022800f0020000f0020000f0020000f0020000fe
:10023800f0020000f0020000f0020000f0020000ee
:10024800f0020000f0020000f0020000f0020000de
:10025800f0020000f0020000f0020000f0020000ce
:10026800f0020000f0020000f0020000f0020000be
:10027800f0020000f0020000f0020000f0020000ae
:10028800f0020000f0020000f0020000f00200009e
:10029800f0020000f0020000f0020000f00200008e
:1002a800f0020000f0020000f0020000f00200007e
:1002b800f0020000f0020000f0020000f00200006e
:1002c800f0020000f0020000f0020000f00200005e
:1002d800f0020000f0020000f0020000d00200006e
:1002e800f0020000f0020000f0020000f00200003e
:1002f800f0020000f0020000f0020000f00200002e
:10030800f0020000f0020000f0020000f00200001d
:10031800f0020000f0020000f0020000f00200000d
:10032800f0020000f0020000f0020000f0020000fd
:10033800f0020000f0020000f0020000f0020000ed
:10034800f0020000f0020000f0020000f0020000dd
:10035800f0020000f0020000f0020000f0020000cd
:10036800f0020000f0020000f0020000f0020000bd
:10037800f0020000f0020000f0020000f0020000ad
:10038800f0020000f0020000f0020000f00200009d
:10039800f0020000f0020000f0020000f00200008d
:1003a800f0020000f0020000f0020000f00200007d
:1003b800f0020000f0020000f0020000f00200006d
:1003c800f0020000f0020000f0020000f00200005d
:1003d800f0020000f0020000f0020000f00200004d
:1003e800f0020000f0020000f0020000f00200003d
:0803f800f0020000f002000019
:020000040000fa
:10040000cf8020000eff27000e01880000000000b2
:1004100000012000200288000c00070000b022002c
:100420000100200011000700000020000000e00093
:100430000200320000000200000000004829020013
:10044000000000000040da000000fe004440a90067
:10045000a04620000000e000030032000000200061
:10046000a00188004440a800000006009101880017
:10047000800078000000eb0015003700e2804000ab
:1004800032a0b4009101ba00e280400032a0b40072
:100490009102ba00e280400032a0b4000002eb00fa
:1004a000472bde00f507b200602ce10004003a00a3
:1004b0000059eb008301e900fdff3e000400370016
:1004c0006128e100010032000082eb000400070017
:1004d0001101ba000200e000e8ff3a000000060047
:1004e0003159ba008301e9000c0032002159ba00e9
:1004f0008301e900080032000400e00003003a0034
:10050000e280400032a0b400f5ff370011d9ba00f4
:100510008301e900faff3a008100e800e180400031
:1005200032a0b400000006000000fa008020a900fc
:10053000ffff37000000fa008060a900ffff3700ce
:100540000000fa008040a900ffff37000000fa0019
:100550008080a900ffff37000000fa0080a0a900fa
:10056000ffff37000000fa008020a900ffff3700de
:100570000000fa008060a900ffff37000000fa00c9
:100580008040a900ffff37000000fa008080a9002a
:10059000ffff37000000fa0080a0a900ffff37002e
:1005a000841f78003400f80004002000a4018800b3
:1005b0000000fa0054408000e00f520003003200b7
:1005c000544080000402e9005440880089e0a900fa
:1005d0000080fa003400f9004f0278000040060065
:1005e0000040da000000fe00000278000200370040
:1005f000315a78000201e900e00f5100fcff3a0097
:10060000000006000002780002003700015a78005e
:100610000201e900e00f5100fcff3a000000060073
:10062000000278008042eb00b4cf1200fdff3a00d8
:0c0630000080ea0000004200000006000c
:020000040000fa
:10063c00000100000a000000100000001a00000079
:10064c0024000000300000004000000048000000c2
:10065c00580000006e0000008200000096000000b0
:10066c00b0000000c6000000d8000000f000000040
:10067c001801000034010000520100006c01000060
:10068c00a0010000ba010000dc010000f80100002c
:10069c00300200004c02000084020000bc0200008a
:1006ac00d8020000100300002c03000064030000bb
:1006bc009c030000d40300000c040000280400007c
:1006cc0060040000b4040000ec04000024050000e9
:1006dc005c050000070000000a0000000f0000008d
:1006ec00140000001a000000240000002800000084
:1006fc00300000003c0000004800000050000000ea
:10070c006000000068000000780000008400000019
:10071c0090000000a8000000b4000000c40000001d
:10072c00e0000000e0000000fc0000000e010000f2
:10073c002c0100003801000050010000680100008d
:10074c0086010000a4010000c2010000e0010000cd
:10075c00fe0100001c0200003a0200003a020000f8
:10076c00580200007602000094020000d002000043
:10077c00ee020000110000001c0000002c00000024
:10078c0040000000580000007000000082000000d3
:10079c009c000000c0000000e00000000801000008
:1007ac00340100006001000080010000b001000075
:1007bc00e0010000140200004c0200008a0200005c
:1007cc00bc020000ee0200003003000084030000b5
:1007dc00c00300001a04000056040000b00400001e
:1007ec00ec04000046050000a0050000fa0500001e
:1007fc0054060000ae060000080700006207000067
:10080c00bc07000034080000ac080000060900001a
:10081c007e0900000d0000001600000024000000fe
:10082c003400000048000000600000006c00000074
:10083c0084000000a0000000c0000000e0000000e8
:10084c0004010000200100004001000068010000cc
:10085c0098010000c0010000f80100002202000015
:10086c005802000084020000b2020000ee020000f8
:10087c002a03000066030000b8030000fc0300001c
:10088c001a04000074040000b00400000a05000003
:10089c0046050000a0050000fa0500003606000021
:1008ac0090060000ea060000440700009e070000c6
:1008bc00f807000001010000010200000204000022
:1008cc0004040000050500000508000009090000eb
:1008dc000a0a00000b0d00000e10000011110000a0
:1008ec001214000015170000191a00001c1d00003e
:1008fc001f21000023250000262800002b2d0000be
:10090c002f31000001010000010100000102000074
:10091c0002020000020400000404000004040000b1
:10092c000606000006060000070800000809000083
:10093c00090a00000c0c00000c0d00000e0f00004a
:10094c001011000012130000131400001516000003
:10095c00181900000101000002040000040400004a
:10096c0005060000080800000b0b0000101000002a
:10097c0012100000131500001919000019220000b4
:10098c001e20000023250000282a00002d30000026
:10099c0033360000393c00003f420000464a00005c
:1009ac004d5100000101000002020000040400008f
:1009bc000606000008080000080a00000c100000e1
:1009cc000c11000010120000151400001717000085
:1009dc00191b00001d220000222300002628000005
:1009ec002b2d000030330000353800003b3e00005a
:1009fc0041440000d00000006701000037020000f5
:100a0c0027030000370400006705000020060000e3
:100a1c009007000020090000d00a0000a00c000084
:100a2c00900e0000a01000002b1200007b140000a0
:100a3c00eb1600007b1900002b1c0000fb1e0000b5
:100a4c00eb2100002424000054270000a42a0000fd
:100a5c00142e0000a431000054350000243900008d
:100a6c000b3c00001b4000004b4400009b48000066
:100a7c000b4d00009b5100004b560000e05900004c
:100a8c00d05e0000e063000010690000606e0000a2
:100a9c00d0730000b1000000000000000000000056
:100aac0000000000005f00000000000000030000d8
:100abc0000030000001400003e1400003e1400006f
:100acc00242a00007f2a0000124300003308000093
:100adc0066610000364900005522000050000000fd
:100aec000503000000000000001c00002241000073
:100afc0000000000412200001c000000140800004f
:100b0c003e08000014080000083e00000808000021
:100b1c000050000030000000000800000808000031
:100b2c0008080000006000006000000000200000c9
:100b3c0010080000040200003e510000494500006e
:100b4c003e000000040200007f0000004261000033
:100b5c00514900004622000041490000493600007e
:100b6c0018140000127f00001027000045450000fb
:100b7c00453900003e49000049490000320100009f
:100b8c0001710000090700003649000049490000c6
:100b9c003626000049490000493e0000003600009e
:100bac003600000000000000563600000000000077
:100bbc00081400002241000000140000141400006e
:100bcc001414000000410000221400000802000070
:100bdc0001510000090600003e410000595500007b
:100bec005e7e000009090000097e00007f490000bc
:100bfc0049490000363e00004141000041220000fe
:100c0c007f410000414100003e7f00004949000047
:100c1c00494100007f09000009090000013e000065
:100c2c0041410000493a00007f080000080800001c
:100c3c007f000000417f00004100000030400000b8
:100c4c00404000003f7f00000814000022410000db
:100c5c007f40000040400000407f0000020c00007c
:100c6c00027f00007f020000040800007f3e0000ad
:100c7c0041410000413e00007f09000009090000cd
:100c8c00061e000021210000215e00007f090000eb
:100c9c00090900007626000049490000493200008d
:100cac00010100007f010000013f000040400000f6
:100cbc00403f00001f200000402000001f7f00006c
:100ccc0020100000207f0000412200001c220000a8
:100cdc004107000008700000080700006151000087
:100cec0049450000430000007f4100000000000067
:100cfc000204000008100000200000000041000069
:100d0c007f0000000402000001020000044000000b
:100d1c0040400000404000000001000002040000c0
:100d2c000000000000000000000000002054000043
:100d3c0054540000787f0000444400004438000004
:100d4c00384400004444000044380000444400008f
:100d5c00447f000038540000545400001804000074
:100d6c00047e0000050500000854000054540000e7
:100d7c003c7f0000080400000478000000440000e0
:100d8c007d40000000200000404400003d000000b9
:100d9c007f1000002844000000000000417f00008c
:100dac00400000007c04000078040000787c000007
:100dbc00080400000478000038440000444400009b
:100dcc00387c000014140000140800000814000003
:100ddc00141400007c0000007c08000004040000d7
:100dec00485400005454000020040000043f00004c
:100dfc00444400003c400000402000007c1c0000eb
:100e0c0020400000201c00003c400000304000004e
:100e1c003c44000028100000284400000c50000046
:100e2c00505000003c440000645400004c4400004e
:100e3c00000800003641000041000000007f000067
:100e4c0000000000414100003608000000020000d4
:100e5c000102000004020000004400007d44000078
:100e6c000038000045450000553000000609000020
:100e7c000906000000380000454400004538000019
:100e8c003c410000404100003c3e000041c10000dc
:100e9c004122000026490000c94900003200000030
:100eac000000000000000000000000000000000036
:100ebc000000000000000000000000000000000026
:100ecc000000000000000000000000000000000016
:100edc000000000000000000000000000000000006
:100eec000000000000010000434f000044450000da
:100efc0020e60000e6e60000e6e60000e6e600007c
:040f0c00e6000000fb
:020000040000fa
:100f10000400fa00000f7800110798001e029000ec
:100f20009e027800848f5200020034001e02780076
:100f3000010037001e029000040078000080fa00d3
:100f4000000006000200fa00004f7800f4c2b3006f
:100f50009e42780084cf52000800340094c3b3004e
:100f60009e42780084cf520004003c009e427800ec
:100f700004cdb30004c242004600370004c4b300ed
:100f80009e42780084cf520008003400a4c5b3000c
:100f90009e42780084cf520004003c009e427800bc
:100fa00094ccb30004c242003a0037001e02fb009a
:100fb0006123b90004fe2f00f5ff2f000602420056
:100fc00087824a00a601200007002000860f5200f9
:100fd000878f5a002e003e00046001001a0037007f
:100fe0002b0037002a00370029003700180037008f
:100ff000190037002600370025003700240037008d
:101000002300370016003700170037002000370094
:101010001700370018003700190037001c00370090
:101020001b0037001a00370019003700180037007e
:10103000170037001600370015003700140037007e
:10104000130037001000370044c2b300110037000e
:1010500054c2b3000f00370064c2b3000d00370064
:1010600074c2b3000b00370084c2b300090037001c
:1010700094c2b30007003700a4c2b30005003700d4
:10108000b4c2b30003003700c4c2b300010037008c
:1010900000c2eb00044078000080fa000000060067
:1010a0000400fa00000f7800110798000e003700c6
:1010b0001e0290000402e900140798001e0290002e
:1010c0001e02420014427800044078009dff070091
:1010d00000427800e14f420003003a00e43128006a
:1010e00014427800050037001e029000e00f520005
:1010f000efff3a00f43128001442780004407800f1
:101100000080fa00000006000600fa0010079800b0
:1011100021079800120037002e0290000402e90017
:10112000240798009e0290002e0290000482420044
:10113000144f7800f4c2b3009e42780084cf52006e
:101140000400340094c3b3009e42780084cf520060
:1011500003003400e4312800144278000500370011
:101160002e029000e00f5200ebff3a00f43128000d
:1011700014427800044078000080fa000000060065
:101180000c00fa00204f9800314f9800a4802b00eb
:10119000b57b20006033b800049fbe000697be00f8
:1011a0002e4a9000e94f52000e0036003e02be006b
:1011b0002e03be004922de00c728dd000482700035
:1011c000c92ade00c730dd00858270004933de00a9
:1011d000c738dd0006837000c93bde00049fbe00f7
:1011e0000697be002e4a9000fa4f52000e003600bd
:1011f0003e02be002e03be004922de00c728dd00ed
:1012000004827000c92ade00c730dd0085827000cc
:101210004933de00c738dd0006837000c93bde00bd
:10122000049fbe000697be003e4a90000482fb0069
:101230006322b900040078003e02be002e03be0007
:10124000800078008100e900050033008703d100a9
:101250000683d3008582d3000482d300f9ff3700d0
:10126000044278006742620068424200044f9800de
:101270000e4a9000ef4f520002003a0004c1b30042
:10128000044f98000e4a9000044078000080fa0055
:10129000000006000200fa00004f78001e427800ad
:1012a0008482fb001e4378000682fb0004aab9007a
:1012b00004027800e70242008400200011000900c7
:1012c0008402d800000278008102780004007800cf
:1012d0000080fa00000006000400fa00008fbe0043
:1012e00076002000070020003e024300ae824b0043
:1012f000cd2bdd004322de0004827300c32ade0012
:1013000004027800040078000080fa000000060063
:101310000800fa00000f78001107980022079800d3
:10132000330798001e0378006022b800048bbe00cb
:10133000ae0290001e027800250298001e0278007e
:101340009e029000350298001e0278002402900050
:10135000040178008000eb001e00900002030200f0
:10136000000000000080fa00000006000600fa00fd
:10137000000f780011079800424798004e429000f5
:101380000482fb00050020001e037800048bbe00d1
:101390004e409000bfff0700000278009e027800d8
:1013a000a40298001e0278009e0290003502980068
:1013b0001e02780024029000040178008000eb00f7
:1013c0001e00900002030200000000000080fa00ee
:1013d000000006000e00fa00881f78003007980011
:1013e0004207980053079800414f98003e02900032
:1013f0001401be00028fbe000042eb00444798007b
:101400004e4a90000442e9004447980043003700e8
:101410003e029000340390001e02be00cd29dd0084
:101420004322de0004827100c32ade000402780039
:10143000840043003e029000340390001e02be0070
:10144000cd2bdd004322de0004827300c32ade00c0
:101450000402780004024300144078004e429000d9
:101460000403fb004e029000de0290000401be0067
:10147000060478000804e900030033008301d1006a
:101480000281d300fbff37000203be0014002000de
:101490000500200006017800070378008403780027
:1014a00005027800070161000402630005002000c6
:1014b000c022dd00040020000403be006112b80059
:1014c00004037300858373001e0278000482ea001f
:1014d000670262000601be00040478000804e90007
:1014e000030033000201410083814900fbff370004
:1014f0000202be0004427800044270008448780072
:101500004e4290000442e900444798001200200037
:10151000030020001e0f41005e9749004e429000dc
:10152000e04f5200baff3d003e0290001e03be0095
:10153000068abe004f0478000080fa000000060012
:101540000c00fa0030079800014f9800124f9800e5
:10155000234f98001e4a90000483fb0007002000e0
:101560003e0290001402be0004b8b90000007800ea
:1015700006a9b90082007800010040000603780047
:10158000040278000432b8000500400080027800b0
:101590000e4b90000683fb0007002000061f420050
:1015a00007974a001e0278000482ea006702620080
:1015b00015002000042add00444798002e4a9000c0
:1015c000e04f5200170032003e02900034039000ba
:1015d0001e02be00cd28dd004322de000482700022
:1015e000c32ade0004027800040343003e02900098
:1015f000b40390001e02be00cd28dd004322de00b1
:1016000004827000c32ade000402780004824300d2
:10161000944278004e42900004c27200044b78005d
:10162000180037003e029000340390001e02be00f6
:10163000cd2bdd004322de0004827300c32ade00ce
:1016400004027800040343003e029000b4039000bb
:101650001e02be00cd28dd004322de0004827000a1
:10166000c32ade000402780004824300144278009a
:10167000844278004e42900004c2ea0004c2620034
:10168000044b78000080fa00000006000c00fa000d
:1016900030079800014f9800124f9800234f980090
:1016a0001e4a90000483fb00070020003e029000c9
:1016b0001402be0004b8b9000000780006a9b90001
:1016c00082007800010040000603780004027800e0
:1016d0000432b80005004000800278000e4b9000f4
:1016e0000683fb0007002000061f420007974a0000
:1016f0001e0278000482ea006702620015002000e2
:10170000042add00444798003e0290003403900014
:101710001e02be00cd28dd004322de0004827000e0
:10172000c32ade0004027800040243001442780059
:101730008482fb001e0278000482ea0067026200d5
:1017400004aade0004427800614262005447980017
:10175000de4290002e4a900084cf520017003200e3
:101760003e029000340390001e02be00cd2bdd002f
:101770004322de0004827300c32ade0004027800e4
:10178000040343003e029000b40390001e02be001a
:10179000cd28dd004322de0004827000c32ade0073
:1017a0000402780004824300944278004e42900084
:1017b00004c27200044b7800180037003e0290000b
:1017c000340390001e02be00cd2bdd004322de005c
:1017d00004827300c32ade0004027800040343007d
:1017e0003e029000b40390001e02be00cd28dd0032
:1017f0004322de0004827000c32ade000402780067
:101800000482430014427800844278004e429000e3
:1018100004c2ea0004c26200044b78000080fa00af
:10182000000006000800fa002007980061479800b1
:10183000724798007e4290000483fb00070020005e
:101840002e0290001402be0004b8b9000000780017
:1018500006a9b90082007800010040000603780064
:10186000040278000432b8000500400080027800cd
:101870006e4390000683fb0007002000061f420015
:1018800007974a002e029000340390001e02be000b
:10189000cd2bdd004322de0004827300c32ade006c
:1018a0000402780004024300144278008482fb00a2
:1018b0001e0278000482ea006702620004aade00c9
:1018c0000442780061426200044078000080fa001f
:1018d000000006000a00fa0020079800310798006f
:1018e000024f98002e0290001402be003447980068
:1018f0000042eb00044f78000042eb0014479800d0
:101900000042eb00044f7800d60037000042eb00a5
:1019100014479800ce0037001e4178009e4090008a
:101920003e009000bfff070000427800e04f5200e9
:10193000c3003a000042eb00244798000e4a900092
:101940000482fb00cfa2de0076002000070020000a
:10195000860f5200878f5a00b3003e0004600100da
:101960000700370012003700180037002600370044
:10197000370037004e0037006f0037009100370006
:101980001e4290008482fb001e4378000682fb000a
:10199000048242006102620004f0a7000402ea002f
:1019a0000402e9004f22de00244798009e00370021
:1019b0009e43780061c263000482fb000402e900d8
:1019c0004f22de0024479800970037001e42900007
:1019d0008482fb0034002000809fbe0011000900bb
:1019e0008482d80080027800010278004f00be0097
:1019f000044278000482fb000402e9004f22de006a
:101a000024479800880037001e4290008482fb0023
:101a10001e4378000682fb008482420034002000ce
:101a2000809fbe00110009008402d8008002780067
:101a3000010278004f00be0004f0a7000402ea0093
:101a40000402e9004f22de002447980076003700a8
:101a50001e4290008482fb0034002000809fbe0064
:101a6000110009008482d800000278008102780009
:101a70004f00be00044278008482fb009e43780041
:101a80000782fb000402d100044278000482fb00bc
:101a9000048242006102620004f0a7000402ea002e
:101aa0000402e9004f22de00244798005e00370060
:101ab0001e4290008482fb001e4378000682fb00d9
:101ac00004aab9008402780024002000809fbe0090
:101ad000110009008402d800800278000102780019
:101ae0004f00be00040378001e4290008482fb0079
:101af0009e4378000782fb0004aab90084027800a4
:101b000034002000809fbe00110009008402d8002c
:101b100080027800010278004f00be0004024300fa
:101b200004f0a7000402ea000402e9004f22de00ec
:101b3000244798003c0037001e4290008482fb003e
:101b40001e4378000682fb0004aab90084027800d4
:101b500024002000809fbe00110009008402d800ec
:101b600080027800010278004f00be000403780074
:101b70001e4290008482fb009e4378000782fb0097
:101b800004aab9008402780034002000809fbe00bf
:101b9000110009008402d800800278000102780058
:101ba0004f00be00040243006102620004f0a7007f
:101bb0000402ea000402e9004f22de0024479800f4
:101bc000190037001e4290008482fb001e437800fb
:101bd0000682fb0004824200610362001e42900004
:101be0008482fb009e4378000782fb0004aab900b0
:101bf0008402780034002000110009008402d8001b
:101c00008002780001027800040243006102620051
:101c100004f0a7000402ea000402e9004f22de00fb
:101c20002447980000000000ae4190001e4178005b
:101c30009e4090002e00900094fe070001003700a7
:101c4000000000001e4290000442e8001447980083
:101c50009e4290003e42900084cf52002eff3900f9
:101c60001e4fe8003e4290009e42780084cf520012
:101c700026ff39000080fa00000006000800fa0084
:101c8000000f7800110798004247980053479800ca
:101c900064479800ee4190005e419000ce40900075
:101ca0001e00780026fe0700f43128001442780058
:101cb000844178005e419000ce4090001e0090006c
:101cc0001ffe07000080fa00000006000e00fa0068
:101cd0004007980051079800424f9800534f9800d2
:101ce0004e0290001402be00244798000042eb0010
:101cf000044f78000042eb0014479800c4cfb300b3
:101d0000044f780045003700c4cfb3001447980053
:101d10003e0037001e4290000402fb00840278005f
:101d200005f0a7008502ea001e02fb0004f0a700f0
:101d30000402ea00850078000400780074fc0700c3
:101d400000027800344798004e4a90008482fb00dd
:101d50001e4290000402fb00048242002407980007
:101d60005e4a90008482fb001e02fb000482420057
:101d7000340798002e029000e00f5200200035003a
:101d80002e4290008482fb002e029000848f52002d
:101d90001b0034003e029000e00f52001800350096
:101da0002e4290008482fb003e029000848f5200fd
:101db000130034003e429000e24f52000500320012
:101dc0003e429000e44f5200020032001400200016
:101dd000010037000002eb0004427800be029000d0
:101de00005437800ae029000854278008641780075
:101df00005417800de0090004e0090009fff070034
:101e00001e4290000442e800144798001e429000d1
:101e1000e44f5200bfff34001e4fe8001e4278001e
:101e2000e44f5200b8ff34000080fa0000000600c2
:101e30000800fa00100798002107980062479800f0
:101e4000734798000042eb00044f78000042eb001b
:101e500014479800e4cfb300044f78002700370000
:101e6000e4cfb30014479800200037001e429000d2
:101e70000402fb008402780005f0a7008502ea0056
:101e80001e02fb0004f0a7000402ea0085007800af
:101e9000040078001efc0700000278000400a20085
:101ea00004f0a7000402ea000402ea004f22de0068
:101eb000044278001e437800fe4290000543430030
:101ec0009e439000ee42900085c243008641780018
:101ed00005417800ae0090001e00900067ff0700eb
:101ee0001e4290000442e800144798001e429000f1
:101ef000e24f5200ddff34001e4fe8001e42780022
:101f0000e24f5200d6ff34000080fa0000000600c5
:101f10001200fa00600798007107980002579800b5
:101f2000135798006e0290001402be006447980098
:101f30000e5290000482fb00c322dd001e5290006e
:101f40000482fb0004827200cfa2de0044079800e6
:101f5000550798004e029000de029000048fbe00ec
:101f60000002eb00240798000002eb002407980011
:101f7000180037001e02be000400420085804a009f
:101f80001e02be00472bdd004922de000402730062
:101f9000c92ade007653200006abb900060378009c
:101fa0006021b900820378000703430084027800af
:101fb00074532000042ab800050343008602780009
:101fc000041f6800059768002e0290000402e800d4
:101fd000240798002e029000e90f5200e5ff34001c
:101fe0004e039000de0390004a3add00c632de0068
:101ff000850272004a32dd003e037200ae83720039
:102000000602be0044079800550798004e03900052
:10201000de039000244125000500200004026b002f
:1020200085826b0044079800550798000002eb007a
:1020300024079800150037004e029000de02900041
:102040002e039000860378008703e9000300330025
:102050008502d1000482d300fbff370004427800e0
:1020600061426200ae0290008542780085417800ae
:1020700082c0b300fe0090006e009000fffe0700db
:102080002e0290000402e800240798002e0290001f
:10209000e50f5200e8ff34004e039000de0390008d
:1020a00004042000050020000600780007037800e3
:1020b00084037800050278000700600004026300d2
:1020c00005002000c022dd00040020000403be0043
:1020d0006102b80004037300858373000702730074
:1020e00004f0a7000402ea000402ea004f22de0026
:1020f0000442780073c0b30082c0b300fe009000b9
:102100006e009000ddfe07004e039000de0390009d
:10211000040820000500200006007800070378006e
:102120008403780005027800070060000402630061
:1021300005002000c022dd00040020000403be00d2
:102140006102b80004037300858373000702730003
:1021500004f0a7000402ea000402ea004f22de00b5
:102160000442780083c0b30082c0b300fe00900038
:102170006e009000c1fe07004e039000de03900049
:1021800004102000050020000600780007037800f6
:1021900084037800050278000700600004026300f1
:1021a00005002000c022dd00040020000403be0062
:1021b0006102b80004037300858373000702730093
:1021c00004f0a7000402ea000402ea004f22de0045
:1021d0000442780083c0b30072c0b300fe009000d8
:1021e0006e009000a5fe07009400200024079800d0
:1021f000170037004e029000de0290002e03900080
:10220000860378008703e900030033008502d100cc
:102210000482d300fbff3700044278006142620071
:10222000ae02900085427800e6c0b30085425300bc
:1022300083c0b30005417800fe0090006e0090005e
:102240008efe07002e0290000402e800240798008a
:102250002e029000ee0f5200e6ff34000002eb0069
:1022600024079800180037004e029000de0290000c
:102270002e039000860378008703e90003003300f3
:102280008502d1000482d300fbff370004427800ae
:1022900061426200ae029000854278006e43900079
:1022a000854253008542e90083c0b30005417800b0
:1022b000fe0090006e00900070fe07002e0290005d
:1022c0000402e800240798002e029000e70f520055
:1022d000e5ff340084002000240798001800370030
:1022e0004e029000de0290002e03900086037800dc
:1022f0008703e900030033008502d1000482d30084
:10230000fbff37000442780061426200ae02900099
:1023100005437800ee42900085424300efc2520030
:102320008541780082c0b300fe0090006e009000ee
:1023300052fe07002e0290000402e80024079800d5
:102340002e029000ee0f5200e5ff3400f431280019
:1023500014427800ee429000e8c2520085417800b5
:1023600082c0b300fe0090006e00900043fe0700a4
:102370000080fa00000006001400fa0070079800c0
:10238000010f9800225798007e0290001402be00b0
:10239000544798002e529000e64f520064003600d9
:1023a0002e5290000482fb0005002000048fbe0026
:1023b0000042eb00444798000042eb00444798007d
:1023c000180037001e02be000400420085804a004b
:1023d0001e02be00452bdd004b22de00040273000e
:1023e000cb2ade0056f2210006abb90006037800c6
:1023f0006021b9008203780007034300840278005b
:1024000054f22100042ab800050343008602780034
:10241000041f6800059768004e4290000442e800df
:10242000444798004e429000eb4f5200e5ff3600c3
:102430002e5290000482fb004c22dd00cfa2de0071
:102440003e037200ae8372000602be00340798009d
:10245000450798000042eb004447980030003700e1
:102460004e4290000483fb003e029000ce0290009a
:10247000860378008703e900030033008502d1005a
:102480000482d300fbff37000442780061426200ff
:10249000244f98004e4290008482fb0034002000bc
:1024a000110009008482d8008002780001027800bf
:1024b000844278005e42900004c242006b425200a7
:1024c000344f98004e4290008482fb00340020007c
:1024d000110009008482d80000027800810278008f
:1024e000444f98002e4a9000ce4990003e499000fb
:1024f0008e0890007e009000e0fd07002e4a9000bc
:10250000be4990004e4990008e0890007e009000d9
:10251000dafd07004e4290000442e800444798006c
:102520004e429000f14f5200cdff360001003700bf
:10253000000000000080fa00000006001600fa000b
:10254000889fbe00000f9800110f98004257980016
:10255000535798000f0478000e0a90001402be0032
:10256000744798000042eb00044f78000042eb00f3
:10257000044f7800170037009e42780061c2620065
:102580000482fb000402e9004f22de0004427800ce
:102590009e41780062c0b3009e0890000e08900033
:1025a000b6fd07009e42780061c262000482fb0013
:1025b0000402e9004f22de000442780063c0b30049
:1025c0001e4178009e0890000e089000abfd0700a9
:1025d0001e4fe8007e4290009e42780084cf520059
:1025e000e5ff390033c0b30032c0b3009e0890004d
:1025f0000e089000b5fd07007e4290006442520034
:1026000033c0b300044178009e0890000e0890008b
:10261000aefd07007e429000644252008441780083
:1026200032c0b3009e0890000e089000a7fd07007e
:102630004e529000e14f5200ac0036000f0278007d
:10264000840478004e5290008482fb0074002000c5
:10265000809fbe00110009008482d800000278002b
:10266000810278004f00be000442780004c2e800f6
:10267000044f9800ce52900004c2b30084cf5200a1
:10268000170032004e5290000482fb000402420008
:10269000840278000e4a90000482fb00048242000b
:1026a000040242008402e8000e4a90000482fb000b
:1026b0000402e90004024200809fbe0011000900ec
:1026c0008402d80000027800810278004f00be002a
:1026d0000442780004424200144798000200370088
:1026e000a4c1b300144798000e4a90000442e900c8
:1026f000244798000e4a90008482fb008502e9007e
:10270000550798000482fb000402e8000402e80078
:102710000402d100840242000f027800858747003e
:102720000402e8000402d100040242006407980099
:10273000ee02900064c0b300844a78004e529000cc
:10274000250020000522dd0071424200644f980000
:102750000042eb00344798000002eb002407980089
:102760000042eb00344798006e4a90000482fb0060
:102770006702520024079800110037002e42900093
:102780008482fb002e029000044278006e039000c9
:1027900004f37a002e4290000442e9002447980096
:1027a0003e4290000442e800344798001e429000e8
:1027b0000482fb00ae0290000482520024079800bd
:1027c0003e4290008482fb000e4a90000482fb008f
:1027d0000402e900848f5200e8ff35000042eb005c
:1027e000644798000042eb00344798003a003700f5
:1027f0000042eb0064479800300037003e429000f2
:10280000e04f520003003a006e429000e04f520049
:10281000220032003e429000e04f520007003a0092
:102820006e4290008482fb000e4a90000482fb00fe
:102830000402e900848f52001a0032003e429000e8
:102840008482fb000e4a90000482fb000402e9002f
:10285000848f520003003a006e429000e04f520015
:10286000120032006e4290000482fb00ee029000e3
:10287000e5427a003e4290000482fb006e03900025
:1028800066427a0085417800044178009e089000f5
:102890000e08900066fd07000500370000000000ec
:1028a00003003700000000000100370000000000b6
:1028b0006e4290000442e80064479800ee429000a7
:1028c0000e4a900084cf5200ccff39003e42900067
:1028d0000442e80034479800be4290000e4a90003f
:1028e00084cf5200c2ff3900890778008041eb0095
:1028f0005e5190009e0890000e08900084fd070035
:102900004e5190009e0890000e0890009afe07001d
:10291000880778004f04be000080fa00000006001f
:102920001a00fa00200f9800310f9800420f98000b
:102930004e0a90001403be005607980067079800df
:102940004e0a9000b4039000770798002e0a90007a
:102950001402be00045798006022b800048fbe0025
:102960000042eb00444798000002eb003407980057
:102970000002eb00440798000e5290000482fb0016
:102980000402e900340798005f0037003e0290001f
:10299000e60f520002003a0054002000340798006d
:1029a0000042eb0044479800500037000002eb0063
:1029b00044079800470037003e02900084427800a8
:1029c0004e0290000442780004c25200145798004e
:1029d0003e0290006202620004f0a7000402ea00d6
:1029e0000402e9004f22de008442780014c0b300e4
:1029f0001e539000e54f5300010036000042eb00eb
:102a000004c26a00245798002e529000e04f5200f2
:102a1000050032008e5290004e42900004c25200d7
:102a20000442e900010037004e42900034579800fc
:102a30003e5190009e5090003e08900079fb0700a8
:102a400000427800e04f52001f003a005e02900002
:102a5000ee0290001e03be00840f5300858f5b00c2
:102a6000190031001e02be004d2bdd004322de00a6
:102a700004027300c32ade0004027800fe02900004
:102a800004824200144278008482fb001e02780017
:102a90000482ea006702620004aade0004427800b1
:102aa00061426200844178003e5190009e50900047
:102ab0002e089000a2fa0700140020000500200054
:102ac0001e0f42005e974a004e0290000402e8008a
:102ad000440798004e029000e10f5200b6ff340008
:102ae0004e4290000442e80044479800ce429000d5
:102af0000e52900084cf5200acff39003e0290008d
:102b00000482e900340798003e029000e00f520072
:102b10009eff3c000080fa00000006002200fa0040
:102b2000881f7800001798006022b800048fbe004c
:102b30000e1290001402be00645798000042eb0091
:102b4000444798000042eb00544798000002eb0015
:102b5000340798000042eb004447980036003700e5
:102b60004e4190008040eb000e1090002dfb0700be
:102b700000427800044f980014c0b30054479800f6
:102b80001400200034079800240037004e419000c4
:102b9000de4090000e10900022fb070000427800fb
:102ba00074579800fe5290000e4a900084cf520055
:102bb000050032007e529000044f9800140020005f
:102bc00034079800120037003e0290000402e8002b
:102bd000340798003e029000e50f520005003a00cd
:102be00034002000050020001e0f42005e974a00be
:102bf000070037003e029000e50f52000400360047
:102c000014002000050020001e0f42005e974a00bd
:102c10005e4290000442e80054479800de42900073
:102c20006e52900084cf5200d8ff39004e4290007f
:102c30000442e80044479800ce4290006e52900053
:102c400084cf5200c6ff39000002eb005407980001
:102c50000042eb0054479800360037000041eb007b
:102c6000de4090000e109000eefa0700004278005f
:102c7000444f980014c0b30044479800140020004b
:102c800054079800240037004e419000de40900029
:102c90000e109000e3fa070000427800045f9800ed
:102ca0008e5a90004e4a900084cf520005003200a8
:102cb0008e5a9000454f9800140020005407980049
:102cc000120037005e0290000402e80054079800ea
:102cd0005e029000e50f520005003a00340020002b
:102ce000050020001e0f42005e974a0007003700d3
:102cf0005e029000e50f5200040036001400200030
:102d0000050020001e0f42005e974a004e429000d0
:102d10000442e80044479800ce4290006e52900072
:102d200084cf5200d8ff39005e4290000442e80090
:102d300054479800de4290006e52900084cf5200bb
:102d4000c6ff39000002eb00740798000042eb0058
:102d5000444798007e0037000002eb00040f980003
:102d60000002eb00140f98000042eb00544798005b
:102d7000700037004e419000de4090000e10900031
:102d8000a8fa070000427800145f98005e429000a5
:102d9000e04f52002d0032004e429000e04f5200b2
:102da0002a0032004e4290008442e9005e429000c8
:102db0000442e90005417800844078000e1090003c
:102dc00098fa070000427800245f98004e42900075
:102dd0000442e90004417800de4090000e109000ab
:102de00090fa070000427800345f98005e4290003d
:102df0000442e9004e419000844078000e1090009b
:102e000088fa070000427800445f98009e5a9000bc
:102e10002e5a900084cf52000c003a009e5a900027
:102e20003e5a900084cf520008003a009e5a90000b
:102e30004e5a900084cf520004003a003400200023
:102e4000050020001e0f42005e974a000e0a900007
:102e50000402420084027800f47f20008482620031
:102e60001e5a90000482fb0004827200040f980036
:102e70001e0a90000402420084027800f47f2000c1
:102e8000048462005e419000ce4090000e109000dd
:102e900064fa0700004278000482fb000402740018
:102ea000140f98005e429000e94f5200180036005f
:102eb0008e0a9000d4052000848f52000400320056
:102ec0008e0a9000045d2000848f520004003a00b6
:102ed00084022000050020001e0f42005e974a0079
:102ee0009e0a9000d4052000848f52000400320016
:102ef0009e0a9000045d2000848f520004003a0076
:102f000084022000050020001e0f42005e974a0048
:102f10001e5a9000e04f5200030032007e029000e3
:102f20000402e800740798005e4290000442e80042
:102f300054479800de4290006e52900084cf5200b9
:102f40008cff39004e4290000442e800444798004c
:102f5000ce4290006e52900084cf52007eff390026
:102f60006e5290008482fb006e5290000482fb003f
:102f700004aab90004027800740f98000002eb0064
:102f8000240f98000002eb00240f98000700370080
:102f9000a4002000050020001e0f42005e974a009a
:102fa0002e0a90000402e800240f98007e02900090
:102fb0007422b900040378002e0a9000e90212007e
:102fc0007e0a900004aab90004027800840f53001e
:102fd000efff39007e0290007422b90004037800ec
:102fe0002e0a9000eb0242007e0a900004aab9006b
:102ff00004027800840f5300e5ff3e001e02be006d
:103000000400be004f0478000080fa0000000600b3
:103010000600fa0040479800514798000002eb0074
:10302000040f78000042eb002447980074c0b300fe
:1030300024479800170037001e027800040242005f
:10304000040378001e027800c722de00d41120009d
:1030500004aab90004027800040f6b005e429000dd
:103060008482fb002e4290000402fb0004aade00d2
:10307000e10262004e4290000482fb0004aab90003
:10308000040278001e0f6a002e4290000442e900fc
:10309000244798002e429000e04f5200e6ff3d008a
:1030a0001e02780004427800044078000080fa0094
:1030b000000006000800fa00881f780040479800ca
:1030c000310798004e4290000482fb000401780012
:1030d0008000eb003e0090000203020000000000b0
:1030e0004e4290000482fb000402e900be02900000
:1030f0008482420014c0b300844a78001400200087
:10310000040f78000042eb00244798000042eb00d7
:10311000344798000042eb002447980040003700f5
:103120000042eb00344798002b0037003e429000ed
:103130000402fb00be029000048442001e027800dc
:10314000844278003e4290000402fb003e0390005f
:10315000040243001442780085407800044078005f
:10316000abff070000427800044c78003e4290001c
:103170000402fb008402e8004e4290000482fb003f
:10318000848f520011003d003e4290000402fb007b
:10319000be029000048342003e4290000402fb0005
:1031a000be02900004824200944278003e429000a9
:1031b0000402fb000402e800be0390000482430006
:1031c0001442780004c26a00044b78003e4290002a
:1031d0000442e800344798003e4290008402fb001d
:1031e0004e4290000482fb00848f5200cfff3500d6
:1031f0001e02780004024200040378001e027800d8
:10320000c722de00d411200004aab900040278000d
:10321000040f6b002e4290000442e80024479800ff
:103220002e4290008402fb004e4290000482fb007c
:10323000848f5200baff35004f0478000080fa00f6
:10324000000006001000fa00889fbe00404798006a
:103250003107980042079800234f980064079800b0
:10326000654f98000042eb00044f78000042eb00ed
:10327000144798000042eb00044f780058003700d4
:103280009e4278000582fb00ce029000048242003c
:10329000944278006e0290001442780004c26a00e2
:1032a0002447980014c0b300144798001600370054
:1032b0001e4290000482fb008402e9006e4a9000e6
:1032c0000482fb0004aab90004027800ee02900018
:1032d000048342001e4290008482fb006e4a9000ec
:1032e0000482fb0004aab90004027800ee029000f8
:1032f0000482420014427800044b78001e42900081
:103300000442e800144798009e4290004e4290000c
:1033100084cf5200e6ff39004e4290000482fb0049
:103320008402e9006e4a90000482fb0004aab900fe
:1033300004027800ee029000848242000042eb001a
:10334000844a78000042eb00144798001f003700c1
:103350001e4290008482fb006e4a90000482fb00b3
:1033600004aab90004027800ee02900084844200ae
:103370001e4290008482fb006e4a90000482fb0093
:1033800004aab90004027800ee0290000482420010
:10339000144478001e4290000482fb00be0290009c
:1033a0000482420014427800ae409000044078004d
:1033b00017ff07000042780004426c00844c78003c
:1033c0001e4290000442e800144798009e4290007c
:1033d0004e42900084cf5200ddff39001e4fe800be
:1033e0002e4a90009e42780084cf5200a4ff3900fc
:1033f0004f04be000080fa00000006001800fa002a
:10340000881f7800000f9800110f9800220f980075
:103410006357980024c0b300044f78001e0a900040
:10342000ae0890000400780037f7070000427800eb
:10343000e04f52004c0032000042eb00044f780095
:1034400041c0b30012002000030020000e089000cd
:10345000e0f707008040eb006e50900048f707004f
:1034600000427800044378002e0a900005002000f6
:10347000864078000401be000e089000d5f70700d2
:103480000002eb00140798000042eb00444798004c
:103490000002eb00340798000002eb0034079800ac
:1034a0001e0037001e0290006a22b90084027800d4
:1034b0001e0b90003e02900004024300144278006c
:1034c0000402fb00048242000403b10014079800c8
:1034d0004e4290000442e800444798004e4290005b
:1034e000e34f52000a003a001e029000050020003f
:1034f000a1c0b3000401be000e089000b5f707009c
:103500000002eb00140798000042eb0044479800cb
:103510003e0290000402e80034079800be029000ca
:103520002e0a9000848f5200deff39004e42900038
:10353000e04f5200830032004e4290006322b900f7
:1035400004027800044278000443e8001e02900060
:1035500005002000864078000401be000e0890009f
:103560009cf70700770037001e0a9000ae08900015
:1035700004007800caf6070000427800e04f5200cd
:103580004a00320014c0b300044f780041c0b300b9
:1035900022002000030020000e0890008df7070095
:1035a00011c0b3006e509000f5f60700004278009d
:1035b000044378002e0a9000050020008640780021
:1035c0000401be000e08900082f707000002eb0025
:1035d000440798000042eb00244f98000002eb00e3
:1035e000640798000002eb00640798002100370090
:1035f000ce029000d402200004aab900040478008e
:103600006e0290009e0a90000482420014427800ec
:10361000044078004bf60700004278000402fb00eb
:1036200004024400440798002e4a90000442e80037
:10363000244f98002e4a9000e24f52000a003a00b0
:103640004e02900005002000b1c0b3000401be008e
:103650000e0890005ff707000002eb004407980097
:103660000042eb00244f98006e0290000402e80034
:1036700064079800ee0290002e0a9000848f52009a
:10368000dbff39002e4a9000e04f52002d0032003f
:103690004e0290000500200061c0b3000401be008e
:1036a0000e0890004bf707002600370041c0b3001a
:1036b00042002000030020000e08900045f707009c
:1036c00021c0b3006e509000adf6070000427800b4
:1036d000044378002e0a9000050020008640780000
:1036e0000401be000e0890003af707000002eb004c
:1036f000740798000002eb00740798000d00370073
:103700007e0290009e0a90000482420014427800db
:103710000402fb00cfa2de0081c0b3000401be00a2
:103720000e0890002bf707007e0290000402e800cc
:1037300074079800fe0290002e0a9000848f5200b9
:10374000efff39001e427800044078004f047800f3
:103750000080fa00000006002400fa00889fbe00e6
:103760000067980011679800121798000f047800fe
:103770000f027800840478001e6290008482fb00af
:103780000e6290000482fb000403e9008402200022
:1037900004aab90004027800060242000546280087
:1037a00065437a00664f98001e6290008482fb0099
:1037b0000e6290000482fb000403e90084022000f2
:1037c00004aab90004027800060242008402420002
:1037d000043228000482420094027800050f980009
:1037e0000e6290000482fb000402e90084024200a1
:1037f000045028000482420014037800160f980039
:103800006e4a90000482fb008e0a900011000900ad
:103810008482d80000027800810278004457980022
:103820001e0a9000c322de006e4a90000482fb0054
:10383000110009008482d80080027800010278001b
:1038400004427800ee4a900004c252005457980097
:103850001e0a9000c322de006e4a90000482fb0024
:10386000110009008482d8000002780081027800eb
:1038700064579800ee5290004e52900004c25200dd
:10388000745798001e129000240290008402780061
:103890008502e900450f9800840278008502e8005f
:1038a0008502e8008502d100058342008f0278007e
:1038b000868747008502e8008502d10085824200a4
:1038c000550f9800040178008000eb005e0890001e
:1038d00002030200000000004e5290008482fb00b0
:1038e0008502e900650f98000482fb000402e800ed
:1038f0000402e8000402d100840242000f027800b2
:10390000858747000402e8000402d1000402420057
:10391000740f98007e0a9000840078004e5090004a
:10392000e4fd07000002eb00040f78001e12900077
:10393000b4029000150798000042eb00444798003d
:103940000042eb00544798000042eb0044479800c7
:10395000260037004e4290000482fb003407980096
:103960007e539000064f98000042eb0054479800a9
:10397000170037009e0290003e0290000482420031
:1039800014427800de0a90009e824200844a780049
:103990001e0fe800de4290005e52900084cf52007d
:1039a00003003a000e4a90000442e800044f9800d9
:1039b0000e4a90000482fb00be0290000482420086
:1039c000340798005e4290000442e8005447980093
:1039d000de4290006e4a900084cf5200e5ff39002d
:1039e0004e4290000442e80044479800ce429000c6
:1039f0007e52900084cf5200d6ff39007e52900054
:103a00008482fb005e5290000482fb000402e80006
:103a100004aab90004027800540798007e5290006e
:103a2000444f98000042eb005447980016003700be
:103a30009e0290005e0290000482420014427800d0
:103a4000de0a90009e824200844a78001e0fe80041
:103a50005e429000e04f520003003a004e4a900050
:103a60000442e800444f98004e4a90000482fb0054
:103a7000de02900004824200540798005e429000eb
:103a80000442e800544798005e4290008482fb00a4
:103a90006e4a90000483fb005e5290000482fb009b
:103aa00004025300848f5200e1ff3500fe52900063
:103ab000554f98000042eb00544798001b00370018
:103ac000de4290005e52900084cf520003003a0024
:103ad0005e4a90000442e800544f9800de0a9000cd
:103ae0005e4290000482fb001e02420004824200fb
:103af0007e0b9000ee4a9000de4990001e0190007f
:103b0000860078004e509000cefd07005e4a90007f
:103b10000482fb009e029000048242001407980079
:103b20005e4290000442e80054479800de42900054
:103b30006e4a900084cf5200e1ff39001e129000bf
:103b4000a40290001e12900034029000050178003b
:103b5000de08900004007800f4020200000000007b
:103b60001e0a9000050020001e139000048bbe006a
:103b700089077800880778004f04be000080fa00ab
:103b8000000006000200fa00004f78001e42780094
:103b9000250020000522dd0071424200044078002b
:103ba000bcf5070000027800040078000080fa00ed
:103bb000000006004000fa00889fbe008a1f7800bf
:103bc000301f9800411f9800227f9800337f980093
:103bd000641f9800751f98000f0478000f0278008a
:103be000840478002e7a9000250020000522dd0054
:103bf00071424200344f98003e1a9000ae7a900015
:103c0000054a78003e1a9000be4a9000154298007e
:103c10003e1a9000be7a9000254298003e1a90000d
:103c2000ce1a9000350298000455280014427800fe
:103c30008482fb003e7a90000482fb000402420072
:103c400004aade000442780063426200444f9800f8
:103c50002e7a90000482fb000402e90084024200f4
:103c600004502800048242009402780075079800ee
:103c70007e0290004323de004e4a90008482fb00c7
:103c80002e7a90000482fb008403e9008402200065
:103c900004aab9000402780007024200840242002c
:103ca0000432280004824200140278000402530007
:103cb000040f98007e029000050020000400be0062
:103cc00085f5070000027800840278008502e9008b
:103cd000150f9800840278008502e8008502e8004c
:103ce0008502d100058342008f0278008687470055
:103cf0008502e8008502d10085824200250f9800e8
:103d000005002000ae0b90007e0347000401be00ba
:103d100087007800060078007df507007e024700e6
:103d2000ae7990007e199000ee18900004007800a3
:103d3000b2fd070000427800645798006e52900070
:103d4000e04f520002003d0000c2eb00c800370007
:103d50006e529000be1a9000b44298000e0a900075
:103d60004322dd006123b8007e0a90008e1290008d
:103d7000041f530005975b001e03be004400200093
:103d800005002000840f5300858f5b000300360080
:103d90004400200005002000048fbe001e027800b1
:103da00004427800fe024700844078006011b800a9
:103db0000500780087f507007e0a90008e129000bb
:103dc000044278006742620085c0b30004c252001a
:103dd00067426200fe024700844078006011b8002c
:103de000050078007bf507000042eb00444798008f
:103df000c4ceb300444798000c0037004e429000f8
:103e00000482fb00050020007e03470081c0b30050
:103e10000401be00060078006ef50700ce42900057
:103e2000d4cfb30004c26a00444798007e0b9000d0
:103e30008e1390000e0a90004322dd000500200042
:103e4000840f5300858f5b00ecff39006402200073
:103e50000e0242003e499000ce1890000400780007
:103e600042f507003e4890000af50700000278007e
:103e70008f02780005057800840278008502e90049
:103e8000450f98000402e8000402e8000402d10093
:103e9000840242000f027800858747000402e80090
:103ea0000402d10004024200540f9800de0a900080
:103eb000e40220000e0242003e4990008500780096
:103ec0000400780029f50700e50220008e824200f8
:103ed000640220000e024200ce4990002e7990002c
:103ee000850078000400780094f907007e024700fe
:103ef00004017800ce4890002e78900016fe07004e
:103f00007e034700e50220008e824200640220000a
:103f10000e02420006017800850078000400780057
:103f20007ffa07000042eb0054479800f4ff2f008f
:103f3000f5ff270034079800450798000042eb0082
:103f4000244f98000042eb00244f98002f003700c8
:103f5000e50220008e824200640220000e02420030
:103f6000ae4990004e49900085007800040078002a
:103f7000e7f70700e50220008e824200640220007d
:103f80000e0242002e49900085007800040078005f
:103f900050f60700640220000e0242000400780080
:103fa000defa07000002be00640f98006e0a90005f
:103fb0006123b9003e029000ce029000840f5300ae
:103fc000858f5b0006003d002e4a90005447980004
:103fd0006e0a9000cfa2de003407980045079800d3
:103fe000e50220008e824200640220000e024200a0
:103ff0002e499000850078000400780035f607000f
:104000002e4a90000442e800244f98002e4a900067
:10401000e74f5200ceff36003e1a9000de4290007d
:1040200045429800e50220008e8242006402200092
:104030000e024200de4190004e499000850078005b
:1040400004007800b2f70700e50220008e824200eb
:10405000640220000e0242005e419000850078005c
:10406000040078001bf607000042eb008a07780086
:104070008907780004407800880778004f057800a9
:104080004f04be000080fa00000006000800fa009d
:10409000000f780011079800424798005347980096
:1040a000340798003e00900010030200000000005a
:1040b00000027800840278003e029000de41900009
:1040c0004e4190009e0090001e007800b9fe07004f
:1040d00000427800044078000080fa0000000600ea
:1040e0000800fa002007980061479800724798007e
:1040f0002e029000944290006e42900084cf5200b5
:10410000050036002e029000944290007e429000fe
:1041100084cf520003003e00e431280014427800ae
:104120001d0037007e4290008482fb002e0290002a
:10413000144290000482fb0004aab90084027800b3
:104140006e4290000482fb0004824200cfa2de0097
:10415000048fbe002e029000340390001e02be00a9
:10416000cd2bdd004322de0004827300c32ade0073
:104170000402780004024300144278008482fb00a9
:104180001e0278000482ea006702620004aade00d0
:104190000442780061426200044078000080fa0026
:1041a000000006000600fa0010079800210798009a
:1041b0000002eb00040f78000002eb00040f78000f
:1041c00002003700000000001e0fe8001e02780009
:1041d0006123b8001e029000ae029000840f5300cd
:1041e000858f5b00f7ff39000080fa0000000600b1
:1041f0000600fa0020079800ae029000f40f20009d
:104200000482620004024200040f7800b5168000a8
:1042100014e02f0004826200140798001e02900030
:104220001e027200b41688000080fa00000006002a
:104230000200fa00004f7800c482a80000000000cd
:10424000d722a90000000000e842a90000000000f9
:10425000d742a900000000009e4278000582fb00c2
:1042600004007800e2ff070000000000d742a80029
:1042700000000000e842a8000080fa0000000600ec
:104280000200fa00000f7800c482a80000000000bd
:10429000d722a80000000000e842a90000000000aa
:1042a000d742a900000000001e007800d0ff0700e0
:1042b00000000000d742a80000000000e842a8006b
:1042c0000080fa00000006000200fa00004f7800ab
:1042d000114798001e407800d5ff07001e4290004d
:1042e0000482fb0004007800e5ff07000080fa006c
:1042f000000006000400fa00008fbe001e02be008f
:10430000402ade000500200084027800f40f20001f
:104310000482620004007800d9ff07001e02be007c
:10432000482bdd004822de0004027300c82ade00ac
:1043300084027800f40f20000482620004007800f8
:10434000cfff07009e027800f40f20000482620075
:1043500004007800caff07000080fa000000060091
:104360000400fa00008fbe001e02be00442bdd00d8
:104370004c22de0004027300cc2ade0084027800a6
:10438000f40320000482620004007800bcff0700f0
:104390001e02be004a2bdd004622de00040273002e
:1043a000c62ade0084027800f40320000482620042
:1043b00004007800b2ff07009e027800f40320009a
:1043c0000482620004007800adff07000080fa005c
:1043d000000006000000fa00c402a900000000006e
:1043e0000000000000000000c402a800000000005f
:1043f000000000000000000010c0b3008cff0700a8
:1044000010c0b3008aff070010c0b30088ff070088
:1044100011c0b30000ceb300abff070031c0b30042
:1044200000ceb300a8ff0700d0c2b30080ff070092
:104430000000eb0092ff07004005200090ff0700fe
:1044400000cbb3007aff0700800220008cff07003a
:10445000000820008aff07001000200088ff0700e6
:10446000f00d200086ff07001000200084ff0700e9
:10447000f000200082ff07000000eb0080ff070033
:104480008040eb0000cfb3008fff070001c6b300f0
:10449000a0c3b3008cff070060ceb30064ff070029
:1044a0001000200076ff07005004200074ff070072
:1044b0007004200072ff070040cbb3005cff0700d0
:1044c000200020006eff0700d00020006cff0700d6
:1044d0000000eb006aff0700b002200068ff070041
:1044e0008002200066ff07000000eb0064ff070069
:1044f0000000eb0062ff07000000eb0060ff070018
:1045000060cbb3004aff0700100020005cff0700eb
:10451000d00120005aff07000000eb0058ff070001
:10452000c000200056ff07009000200054ff070045
:104530000000eb0052ff07000000eb0050ff0700f7
:10454000a0c2b3003aff07000000eb004cff0700d9
:104550000000eb004aff07001000200048ff0700a2
:10456000f00d200046ff0700b0c2b30030ff070087
:104570000000eb0042ff07000000eb0040ff0700d7
:10458000100020003eff0700f00020003cff070065
:1045900090c2b30026ff0700c0c2b30024ff07008b
:1045a0000080fa00000006000000fa00d742a800d0
:1045b000c482a800e842a800d722a8000080fa0020
:1045c000000006000000fa00dca2a80000f42100b0
:1045d00001002000f3fe0700f3ff07007dff070046
:1045e000803e200001002000eefe070079ff07005a
:1045f000803e200001002000eafe070075ff070052
:104600000080fa00000006000800fa00000f7800a1
:10461000110798002207980033079800a0c2b30042
:1046200003ff07001e0278004822de000400780025
:1046300013ff0700f40f20001e0262000400780040
:104640000fff07001e0290004822de0004007800e1
:104650000bff07009e029000f40f2000048262000e
:104660000400780006ff0700b0c2b300f0fe0700a8
:104670002e0290004822de000400780000ff0700b0
:10468000ae029000f40f2000048262000400780063
:10469000fbfe07003e0290004822de000400780086
:1046a000f7fe0700be029000f40f200004826200b3
:1046b00004007800f2fe07000080fa000000060007
:1046c0000600fa0020079800ae02900004112000b6
:1046d00004aab900040278004822de00040f780022
:1046e000ae0290000411200004aab90084027800f0
:1046f000f40f2000048262001407980070c3b30016
:10470000cbfe07001e007800ddfe07001e009000b3
:10471000dbfe07000080fa00000006000800fa0037
:1047200020079800310798000002eb00040f780082
:104730000002eb0014079800f31020000001eb00ca
:10474000f11d20000000eb00afff0700c0c2b30066
:10475000b7fe07000002eb00140798000e003700b8
:104760000002eb00040f7800040037002e009000d8
:10477000be009000dffe07001e0fe800f41d2000c1
:104780009e027800848f5200f8ff36001e029000cf
:104790000402e800140798009e029000f410200024
:1047a000848f5200eeff36000080fa000000060001
:1047b0000600fa0010079800414798004e4290000a
:1047c0000482fb009e029000042ade00044f780061
:1047d0001e427800614f62001e427800044078005b
:1047e0000080fa00000006001e00fa007007980022
:1047f000010f9800120f9800230f9800340f9800b3
:10480000460f9800570f9800650f98000002eb00c4
:10481000040f78000002eb00140798000002eb0080
:10482000240798000002eb00340798000002eb0018
:10483000440798000042eb00244f98000002eb0070
:10484000640798000002eb00340798000002eb00b8
:1048500064079800970037001e0a90001442780001
:10486000fa4f42000c003a00be0a90006e0290001f
:1048700004824200144278008442780004ceb300df
:1048800004c24200244f98006e0290000402e80027
:1048900064079800060037001e0a90001442780052
:1048a0008442780004ceb30004c24200244f980032
:1048b0002e0a9000c322dd000e0a900004824200fe
:1048c0008403e9002e0a90006522b90004027800f2
:1048d000e30242003e02900004aab90004037800fb
:1048e0002e0a90006522b900040278008402430079
:1048f0007e029000048242000403e9002e0a900028
:104900006522b90004027800e30242003e029000f2
:1049100004aab900840278007e029000048242005a
:10492000870178000e099000860078000400780066
:1049300035ff0700c0c2b3003dfe07000002eb00d8
:1049400014079800520037000002eb00240798007b
:10495000480037000002eb00040f78003f003700ea
:104960001e029000044378002e4a90000482fb004f
:104970006522b900040278001e0242002555280075
:1049800065427a000482fb008640780004007800cb
:1049900087ff070000427800e04f520021003200fc
:1049a0006e0a9000e10f52000d003a000002eb0089
:1049b00044079800060037003eb89700ceb897002d
:1049c0004cfe07004e0290000402e80044079800e5
:1049d000ce0290002e0a9000848f5200f6ff39001c
:1049e0006e0a9000e00f52001b003a000002eb003c
:1049f00044079800060037004e089000de0890003b
:104a00003cfe07004e0290000402e80044079800b4
:104a1000ce0290002e0a9000848f5200f6ff3900db
:104a20000d0037000002eb00440798000600370035
:104a30003eb89700ceb897002efe07004e029000b9
:104a40000402e80044079800ce0290002e0a90006d
:104a5000848f5200f6ff39001e0fe8001e02780016
:104a6000e40f5200beff36002e0290000402e80060
:104a700024079800ae0290002e0a9000848f520006
:104a8000b4ff39001e0290000402e80014079800e9
:104a90001e029000e70f5200abff36001e0a900086
:104aa0000402e800140f98003e0290000402e8009f
:104ab000340798001e0a900014427800e04f52001c
:104ac00065ff3a000080fa00000006000a00fa00c4
:104ad000000f78001107980022079800330798000c
:104ae000440798004e029000e10f520004003a0083
:104af000f4ff2f00f50f20002407980035079800d9
:104b00009e0190001e0190009e0078001e0078001b
:104b1000bdfe0700c0c2b300c5fd07002e00900017
:104b2000be009000f3fd07000080fa0000000600c0
:104b30001200fa00200798003107980042079800f9
:104b4000530798006407980075079800060f9800af
:104b50000002eb00040f78000002eb00140798003d
:104b6000de0290004e029000048f5200be029000c0
:104b70002e029000848f520003003600be02900087
:104b80002e029000048f52000e0a9000e10f520096
:104b900023003a000002eb00140798001b003700c6
:104ba000de0290004e029000848f52000800360012
:104bb000ce0290001e029000848242001400200069
:104bc0006011b800850078002e009000bfff07003c
:104bd000be0290002e029000848f52000800360022
:104be000ae0290001e029000848242001400200059
:104bf0006011b800ce00900005007800b3ff0700f8
:104c00001e0290000402e800140798009e02e800cb
:104c10001e029000848f5200e1ff3e001400370016
:104c2000de0190004e019000be0090002e0090002a
:104c300075fe0700c0c2b3007dfd07000002eb0057
:104c400014079800060037006e009000fe009000e8
:104c5000a8fd07001e0290000402e8001407980057
:104c60009e02e8001e029000848f5200f6ff3e0074
:104c70000080fa00000006001200fa0010079800f9
:104c800021079800320798004307980054079800be
:104c90006507980076079800070f98000002eb0060
:104ca000040f78007e029000e10f520016003a00d7
:104cb0000002eb00040f78000d0037003e02900068
:104cc0001e0042003e0290009e0342000e0b900028
:104cd0005e029000ee0290008001780007017800eb
:104ce000ae0090001e00900091ff07001e0fe8002c
:104cf000ce0290003e029000048252009e0f5200ad
:104d0000eeff3e00200037000e0b90005e02900088
:104d1000ee029000be0190003e019000ae009000b7
:104d20001e00900082ff07000e0b90005e029000b4
:104d3000ee029000ce0190003e019000ae00900087
:104d40002e0090007aff07000e0b90005e0290008c
:104d5000ee029000ce0190004e019000ae00900057
:104d60001e00900072ff07000e0b90005e02900084
:104d7000ee029000ce0190003e0190009e00900057
:104d80001e0090006aff07000080fa000000060085
:104d90001a00fa00889fbe00100f9800210f98009b
:104da000320f9800430f98000f0478000f0278002c
:104db0008404780030c0b300c21d0200000000006f
:104dc00000027800840278008502e9003507980027
:104dd0000402e8000402e8000402d1008402420058
:104de0000f027800858747000402e8000402d10022
:104df00004024200440798004e039000ea02470074
:104e00001e0a90008041eb0032c0b300860078009b
:104e10000500780046200200000000003e4a900095
:104e20000482fb0004024200840278003e0a9000e3
:104e30000482420069024200840178003e0a900028
:104e40006a025200040178003e4a90000482fb008e
:104e500004024200840278002e0a9000048242007c
:104e600069024200840078002e0a90006a02520013
:104e700004007800ce0b900016002000f4ff2f00f5
:104e8000f50f20003c260200000000004e0a9000b2
:104e9000e00f52005a003a003e4a90000482fb00a4
:104ea00004024200840278003e0a9000048242001c
:104eb0000402e900840378003e0b90003e4a900013
:104ec0000482fb0004024200840278002e0a900053
:104ed000048242000402e900840278002e0a900055
:104ee00087017800060178008500780004007800ca
:104ef0000423020000000000c0c2b3001821020019
:104f0000000000000002eb00040f78000002eb003c
:104f1000140798000002eb00240798000002eb0041
:104f200024079800310037000002eb00040f7800de
:104f3000280037000002eb00140798001f0037001c
:104f40002e029000844278001e02900004427800f5
:104f50006a03470005417800844078000600780025
:104f6000702002000000000000427800e04f520074
:104f7000070032006000b8007a2102000000000043
:104f80006000b8007a21020000000000080037002d
:104f9000f0ff2f00f10f20007a2102000000000036
:104fa000f0ff2f00f10f20007a2102000000000026
:104fb0001e0290000402e800140798003e4a900088
:104fc0008482fb001e029000848f5200dcff3c00b4
:104fd0001e0fe8001e027800e10f5200d5ff3400da
:104fe0002e0290000402e800240798003e4a900038
:104ff0008482fb002e029000848f5200caff3c0086
:1050000089077800880778004f04be000080fa0006
:10501000000006000600fa0010079800210798001b
:105020000042eb00044f78002e0290006123b9008b
:105030000082eb008082eb000602420087824a0079
:105040004600200007002000860f5200878f5a007c
:105050008a003e0004600100040037000f003700a2
:10506000220037003d003700600037009e029000ac
:1050700004712200809fbe00110009008482d800c4
:1050800000027800810278004f00be0004427800e0
:105090000443b000044f7800790037009e0290006e
:1050a00004712200809fbe00110009008482d80094
:1050b00080027800010278004f00be008402780070
:1050c000843e2000809fbe00110009008482d80029
:1050d00000027800810278004f00be000442780090
:1050e0000443b000044f7800650037009e02900032
:1050f00004712200809fbe00110009008482d80044
:1051000080027800010278004f00be00840278001f
:10511000843e2000809fbe00110009008482d800d8
:1051200080027800010278004f00be0084027800ff
:1051300044062000809fbe00110009008482d80030
:1051400000027800810278004f00be00044278001f
:105150000443b000044f7800490037009e029000dd
:1051600004712200809fbe00110009008482d800d3
:1051700080027800010278004f00be0084027800af
:10518000843e2000809fbe00110009008482d80068
:1051900080027800010278004f00be00840278008f
:1051a00044062000809fbe00110009008482d800c0
:1051b00080027800010278004f00be00840278006f
:1051c000a4002000809fbe00110009008482d80046
:1051d00000027800810278004f00be00044278008f
:1051e0000443b000044f7800250037009e02900071
:1051f00004712200809fbe00110009008482d80043
:1052000080027800010278004f00be00840278001e
:10521000843e2000809fbe00110009008482d800d7
:1052200080027800010278004f00be0084027800fe
:1052300044062000809fbe00110009008482d8002f
:1052400080027800010278004f00be0084027800de
:10525000a4002000809fbe00110009008482d800b5
:1052600080027800010278004f00be0004427800fe
:105270000443b000044f7800010037000000000034
:105280001e427800044078000080fa00000006000a
:105290000400fa000002eb00040f78000002eb00ab
:1052a00014079800262a020000000000f22a0200db
:1052b00000000000e222020000000000f0ff2f00ca
:1052c000f10f20008e230200000000000000eb0020
:1052d000602302000000000080382100010020004f
:1052e000d220020000000000dce2a800803821008b
:1052f00001002000d2200200000000000100370061
:105300000000000054408000e00f5200fcff3a0013
:10531000440620005440880005088000f4702200f4
:10532000048f6200a5098000f470220004826200ec
:1053300014079800210020001e00780035ff0700a8
:105340000042780005802000844a78003100200067
:105350001e0078002fff0700004278001580200013
:10536000844a7800410020001e00780029ff0700d1
:105370000042780025802000844a780051002000f7
:105380001e00780023ff07000042780035802000cf
:10539000844a7800210020001e0090001dff0700b5
:1053a0000042780045802000844a780031002000c7
:1053b0001e00900017ff0700004278005580200073
:1053c000844a7800410020001e00900011ff070071
:1053d0000042780065802000844a78005100200057
:1053e0001e0090000bff070000427800758020002f
:1053f000844a7800858020000042eb00844a7800cf
:105400008001eb0042062000810c2000008020007b
:105410005ffe0700f4ff2f00f50f2000849fbe0001
:105420008002eb006033b8000480200023002000dd
:10543000a2772800410b200060092000f42302001d
:1054400000000000e4875700aeff37000000fa00bc
:10545000e0012000303a8800003223004427ef00aa
:10546000300120003174200082072000a3092000b1
:105470008248780083487800804878001000200037
:105480002174200062042000730520008248780007
:1054900083487800804878000080fa000000060009
:1054a0000000fa000082eb00541988000082eb0033
:1054b000641988000082eb00641b88000002eb0086
:1054c000041688000002eb00341688000002eb008e
:1054d000641688000002eb00941688000002eb00be
:1054e000c41688000002eb00f41688000002eb00ee
:1054f000241788000002eb00241688000002eb004d
:10550000541688000002eb00841688000002eb00ad
:10551000b41688000002eb00e41688000002eb00dd
:10552000141788000002eb00441788000080fa007e
:10553000000006000000fa000002eb0024088800ca
:10554000240880000440a1000450a0002408880022
:105550000002eb001408880005e1a9008460a9009e
:1055600005e1a8000080fa00000006000000fa0033
:105570000002eb00e4098800e40980000440a00078
:105580000450a100e40988000002eb00c40988006f
:105590003a61a9003de1a9008a80a9003de1a80087
:1055a0000080fa00000006000000fa000002eb0094
:1055b00064098800640980000440a0000450a00031
:1055c0006409880044e82100440988002de1a9000d
:1055d00089e0a90099e0a8002de1a8000080fa0068
:1055e000000006000000fa00adff0700d1ff070031
:1055f000deff0700ecff07000080fa000000060055
:020000040000fa
:10560000000800000a000000000000000a08000076
:105610000200000002000000000000000000000086
:020000040000fa
:0200000401f009
:04000000ffff0000fe
:020000040000fa
:0200000401f009
:04000400ff000000f9
:020000040000fa
:0200000401f009
:04000800ffff0000f6
:020000040000fa
:0200000401f009
:04000c00f9ff0000f8
:020000040000fa
:0200000401f009
:040010007dff000070
:020000040000fa
:0200000401f009
:040014007aff00006f
:020000040000fa
:0200000401f009
:04001800ffff0000e6
:020000040000fa
:0200000401f009
:04001c00deff000003
:00000001FF
